:020000040000FA
:10000000D8020010690100007101000073010000B6
:100010007501000077010000790100000000000078
:100020000000000000000000000000007B01000054
:100030007D010000000000007F0100008101000040
:1000400083010000830100008301000083010000A0
:100050008301000083010000830100008301000090
:100060008301000083010000830100008301000080
:100070008301000083010000830100008301000070
:100080008301000083010000830100008301000060
:100090008301000083010000830100008301000050
:1000A0008301000083010000830100008301000040
:1000B0008301000083010000830100008301000030
:1000C00083010000830100008301000000F002F8BA
:1000D00000F03AF80AA090E8000C82448344AAF1A8
:1000E0000107DA4501D100F02FF8AFF2090EBAE8A6
:1000F0000F0013F0010F18BFFB1A43F0010318475C
:10010000C8080000E8080000103A24BF78C878C189
:10011000FAD8520724BF30C830C144BF04680C600D
:10012000704700000023002400250026103A28BF55
:1001300078C1FBD8520728BF30C148BF0B60704759
:100140001FB51FBD10B510BD00F0A6F81146FFF792
:10015000F7FF00F002FA00F0C4F803B4FFF7F2FF73
:1001600003BC00F029FC000009488047094800470B
:10017000FEE7FEE7FEE7FEE7FEE7FEE7FEE7FEE757
:10018000FEE7FEE704480549034A054B70470000B7
:1001900023090000CD000000D8000010D802001094
:1001A000D800001053EA020C00F069802DE9F04BF2
:1001B0004FF00006002B1FBFB3FA83F503FA05F4D6
:1001C00024FA05F65E4012BF1643B2FA82F502FA2F
:1001D00005F4C5F120051EBF22FA05FC44EA0C0413
:1001E000203556EA044C4FEA144418BF641C4FF003
:1001F00000084FF00009904271EB030C39D300293D
:1002000019BFB1FA81F701FA07F6B0FA80F700FAE0
:1002100007F6C7F120071EBF20FA07FC46EA0C06C6
:100220002037B6FBF4FCA7EB0507103F07F01F0BC8
:10023000CBF120060CFA0BFB2CFA06F644BFB346B2
:100240000026202FA4BF5E464FF0000B5BEA060C91
:1002500008BF4FF0010B19EB0B09ABFB027C48EB1D
:100260000608C01B06FB02CC0BFB03CC71EB0C0198
:10027000C1E70B46024641464846BDE8F08B13B540
:100280004FF000004FF00001AFF30080BDE81C40CC
:100290007047704770477047754600F02BF8AE46C0
:1002A00005006946534620F00700854618B020B582
:1002B000FFF768FFBDE820404FF000064FF0000751
:1002C0004FF000084FF0000B21F00701AC46ACE8FE
:1002D000C009ACE8C009ACE8C009ACE8C0098D466B
:1002E000704710B50446AFF300802046BDE81040CB
:1002F000FFF733BF0048704774000010FFFFFFFF97
:10030000002100E0491C8142FCD370474FF470008B
:10031000F949C8634FF00070C8674000C8678000A3
:10032000F5499C310860704700B5FFF7EFFFF348CF
:100330000068F14948634FF08060C8674010C867A3
:10034000C000ED49983108601920FFF7D9FF4FF040
:100350008050E949C1F89C0000BD00B5E84800782C
:1003600000F0F000E54908600846008800040860D5
:10037000FFF7DAFFE248007800F00F00DF4908607D
:100380000846008800050860FFF7CEFF4FF47A703A
:10039000FFF7B6FF00BD00B50120D9490860FFF79F
:1003A000DCFF42F21070FFF7ABFF00BD002100E060
:1003B000491C8142FCD3704700B5FFF7A7FFCF4827
:1003C0000068CD4948634FF0007088674000C867F7
:1003D0008000C949983108601920FFF791FF4FF05C
:1003E0008050C549C1F89C0000BD00B5C4480078E4
:1003F00000F0F000C1490860084600880004086069
:10040000FFF7DAFFBE48007800F00F00BB49086034
:100410000846008800050860FFF7CEFF4FF47A70A9
:10042000FFF76EFF00BD10B5044600230CE0E05C52
:10043000B3490860FFF7D9FF5B1C102B04D1C02023
:10044000AF490860FFF789FFE05C0028EFD110BDDD
:1004500000B5AC48C06820F47F40AA49C86008468F
:10046000C06920F44020C8610846C06920F44010EB
:10047000C8610846406A20F0407048629E48006AA1
:1004800040F470009C4908620846006E40F000701D
:1004900008660846006E40F0806008669648803026
:1004A000006840F08050C1F88000FFF72FFF4FF444
:1004B0004860FFF725FF302090490860FFF734FFC0
:1004C00047F23050FFF71CFF30208C490860FFF7DF
:1004D0002BFF47F23050FFF713FF302087490860A9
:1004E000FFF722FF47F23050FFF70AFF2020834931
:1004F0000860FFF719FF47F23050FFF701FF28208F
:100500007F490860FFF729FF47F23050FFF7F8FEF8
:100510000C207B490860FFF720FF4FF44870FFF77D
:10052000EFFE062076490860FFF717FF4FF448708A
:10053000FFF7E6FE012072490860FFF70EFF42F266
:100540001070FFF7DDFE80206D490860FFF705FFA2
:100550004FF44870FFF7D4FE00BD00F0E2F900F060
:1005600009F96848406820F44010664948606248CC
:10057000006820F08060604908606248406820F4AC
:100580004020604948605C48006840F000705A496B
:1005900008605C48406820F440305A49486056483A
:1005A000006840F08070544908605648406820F464
:1005B0004040544948605048006820F400004E49CB
:1005C0000860CEE04C48406900F4000000287CD070
:1005D000FFF7E1FE4848406900F08060002855D0F0
:1005E0004FF000704449C8614010C86142F2107079
:1005F000FFF7DCFE4FF080703F4988614248FFF70B
:10060000D5FE4FF080703C49C8614048FFF7CEFEF0
:100610004FF08070384988613B48FFF7C7FE4FF0C4
:1006200080703549C86142F21070FFF7BFFE4FF08D
:100630008070314988613448FFF7B8FEFFF7ABFEA0
:10064000FFF706FF4FF44860FFF75AFE80202C4961
:100650000860FFF782FE4FF44870FFF751FE2C4808
:10066000FFF7E1FEC02026490860FFF776FE4FF451
:100670004870FFF745FE2748FFF7D5FE41F2883066
:10068000FFF73EFE2048FFF791FE6AE01A484069F6
:1006900000F08060002864D14FF000701649886136
:1006A00040108861FFF777FEFFF7D2FE4FF44860F5
:1006B000FFF726FE802012490860FFF74EFE4FF438
:1006C0004870FFF71DFE144800E02BE0FFF7ABFE7B
:1006D000C0200B490860FFF740FE4FF44870FFF759
:1006E0000FFE0E48FFF79FFE41F28830FFF708FE2D
:1006F0000B48FFF75BFE34E000C009200400001047
:100700000000001000C00240A0860100905F0100C0
:100710000800001016000010250000103300001023
:1007200040420F004FF000700E4988614010886110
:10073000FFF731FEFFF78CFE4FF44860FFF7E0FD56
:10074000802009490860FFF708FE4FF44870FFF762
:10075000D7FD0648FFF767FE0548FFF727FEFFF7BE
:100760001AFE2FE700C0092000000010470000100B
:1007700040420F002DE9F04784480068C0F3016053
:1007800003287ED181488430006810F0030006D031
:10079000012832D002285ED003282DD100E000BF0E
:1007A0007A480068C0F3074000F1010C4FF00201E5
:1007B0007748D0F88800C0F30E0000F10100A1FBDB
:1007C0000001744A4FF00003A0FB026901FB029193
:1007D00000FB031162463046FFF7E4FC04466E4816
:1007E0000068C0B200F1010632464FF00003204617
:1007F000FFF7D8FC694908605FE064480068C0F30F
:10080000074000F1010C4FF002016148D0F8880068
:10081000C0F30E0000F10100A1FB0012604B4FF08D
:100820000000A1FB036902FB039201FB0021624669
:1008300003463046FFF7B6FC044657480068C0B28E
:1008400000F1010632464FF000032046FFF7AAFCF4
:100850005249086031E04D480068C0F3074000F19C
:10086000010C4FF002014A48D0F88800C0F30E0096
:1008700000F10100A1FB00024FF400434FF0000122
:1008800000E01BE0A0FB036902FB039200FB0127D1
:1008900062460B4630463946FFF784FC04463E4824
:1008A0000068C0B200F1010632464FF00003204656
:1008B000FFF778FC3949086000BF30E0364808305F
:1008C000006810F0030006D0012810D0022819D0CB
:1008D000032823D100E000BF2F480068C0B200F118
:1008E00001002C49B1FBF0F02C49086016E02A48C1
:1008F0000068C0B200F101002949B1FBF0F02749BE
:1009000008600BE024480068C0B200F101004FF419
:100910000041B1FBF0F02149086000BF00BFBDE815
:10092000F0874FF020001F4908601948D0F8A00157
:1009300010F0200F05D000BF1A48006810F0400FDB
:10094000FAD04FF00300144908604FF040001049FE
:10095000C1F8A8014FF00400134908604FF00100EE
:10096000124908604FF00400A1F10401086010482A
:100970001049086040F201100549C1F8C801084655
:10098000006820F4704008607047000088C00F4085
:1009900000C00F4000093D0004C10F40700000106E
:1009A000001BB700A0C10F40ACC10F400CC10F40ED
:1009B0000080288CC4C00F4001491820ABBEFEE760
:1009C0002600020070470000E80900000000001047
:1009D00074000000080100005C0A000074000010B0
:1009E000640200002401000000000000000000007C
:1009F0004D4F544F52204F4E000000000000574111
:100A000054455220464C4F5700000000004D4F54B3
:100A10004F52204F464600000000004E4F205741E5
:100A200054455220464C4F57000000000000005330
:100A3000595354454D204F46460000000000000029
:100A400000000053595354454D204F4E0000000004
:0C0A50000000000000000000C0C62D00E7
:04000005000000CD2A
:00000001FF
